{
  "address": "0x32e12d577CeAdcE67FF37ba9fEfa524c78106D8b",
  "abi": [
    {
      "inputs": [
        {
          "internalType": "contract AggregatorV3Interface",
          "name": "priceFeedAddress",
          "type": "address"
        }
      ],
      "stateMutability": "nonpayable",
      "type": "constructor"
    },
    {
      "inputs": [
        {
          "internalType": "uint256",
          "name": "minUsd",
          "type": "uint256"
        }
      ],
      "name": "createGoFundMeContract",
      "outputs": [],
      "stateMutability": "nonpayable",
      "type": "function"
    },
    {
      "inputs": [
        {
          "internalType": "uint256",
          "name": "fundIndex",
          "type": "uint256"
        }
      ],
      "name": "getFundAmount",
      "outputs": [
        {
          "internalType": "uint256",
          "name": "",
          "type": "uint256"
        }
      ],
      "stateMutability": "view",
      "type": "function"
    },
    {
      "inputs": [
        {
          "internalType": "uint256",
          "name": "",
          "type": "uint256"
        }
      ],
      "name": "goFundMeArray",
      "outputs": [
        {
          "internalType": "contract GoFundMe",
          "name": "",
          "type": "address"
        }
      ],
      "stateMutability": "view",
      "type": "function"
    },
    {
      "inputs": [],
      "name": "priceFeed",
      "outputs": [
        {
          "internalType": "contract AggregatorV3Interface",
          "name": "",
          "type": "address"
        }
      ],
      "stateMutability": "view",
      "type": "function"
    }
  ],
  "transactionHash": "0x6f74863e49068a98c56e3e6f5acbcfe9b8ab6c6655f42669b6b11c74d4a9ab12",
  "args": [
    "0xD4a33860578De61DBAbDc8BFdb98FD742fA7028e"
  ],
  "numDeployments": 2,
  "solcInputHash": "9fc49f5d18a5838f909597d40da37ec5",
  "bytecode": "0x60a060405234801561001057600080fd5b50604051611415380380611415833981810160405281019061003291906100e1565b8073ffffffffffffffffffffffffffffffffffffffff1660808173ffffffffffffffffffffffffffffffffffffffff16815250505061010e565b600080fd5b600073ffffffffffffffffffffffffffffffffffffffff82169050919050565b600061009c82610071565b9050919050565b60006100ae82610091565b9050919050565b6100be816100a3565b81146100c957600080fd5b50565b6000815190506100db816100b5565b92915050565b6000602082840312156100f7576100f661006c565b5b6000610105848285016100cc565b91505092915050565b6080516112e56101306000396000818161012c01526101bd01526112e56000f3fe608060405234801561001057600080fd5b506004361061004c5760003560e01c80634376bb0d14610051578063741bef1a14610081578063831cebe11461009f578063a2b936d6146100cf575b600080fd5b61006b600480360381019061006691906102c3565b6100eb565b604051610078919061036f565b60405180910390f35b61008961012a565b60405161009691906103bd565b60405180910390f35b6100b960048036038101906100b491906102c3565b61014e565b6040516100c691906103e7565b60405180910390f35b6100e960048036038101906100e491906102c3565b6101b8565b005b600081815481106100fb57600080fd5b906000526020600020016000915054906101000a900473ffffffffffffffffffffffffffffffffffffffff1681565b7f000000000000000000000000000000000000000000000000000000000000000081565b6000806000838154811061016557610164610402565b5b9060005260206000200160009054906101000a900473ffffffffffffffffffffffffffffffffffffffff16905060008173ffffffffffffffffffffffffffffffffffffffff163190508092505050919050565b6000817f0000000000000000000000000000000000000000000000000000000000000000336040516101e99061027b565b6101f593929190610452565b604051809103906000f080158015610211573d6000803e3d6000fd5b5090506000819080600181540180825580915050600190039060005260206000200160009091909190916101000a81548173ffffffffffffffffffffffffffffffffffffffff021916908373ffffffffffffffffffffffffffffffffffffffff1602179055505050565b610e268061048a83390190565b600080fd5b6000819050919050565b6102a08161028d565b81146102ab57600080fd5b50565b6000813590506102bd81610297565b92915050565b6000602082840312156102d9576102d8610288565b5b60006102e7848285016102ae565b91505092915050565b600073ffffffffffffffffffffffffffffffffffffffff82169050919050565b6000819050919050565b600061033561033061032b846102f0565b610310565b6102f0565b9050919050565b60006103478261031a565b9050919050565b60006103598261033c565b9050919050565b6103698161034e565b82525050565b60006020820190506103846000830184610360565b92915050565b60006103958261031a565b9050919050565b60006103a78261038a565b9050919050565b6103b78161039c565b82525050565b60006020820190506103d260008301846103ae565b92915050565b6103e18161028d565b82525050565b60006020820190506103fc60008301846103d8565b92915050565b7f4e487b7100000000000000000000000000000000000000000000000000000000600052603260045260246000fd5b600061043c826102f0565b9050919050565b61044c81610431565b82525050565b600060608201905061046760008301866103d8565b61047460208301856103ae565b6104816040830184610443565b94935050505056fe60e06040523480156200001157600080fd5b5060405162000e2638038062000e2683398181016040528101906200003791906200019a565b8073ffffffffffffffffffffffffffffffffffffffff1660808173ffffffffffffffffffffffffffffffffffffffff16815250508260a081815250508173ffffffffffffffffffffffffffffffffffffffff1660c08173ffffffffffffffffffffffffffffffffffffffff1681525050505050620001f6565b600080fd5b6000819050919050565b620000ca81620000b5565b8114620000d657600080fd5b50565b600081519050620000ea81620000bf565b92915050565b600073ffffffffffffffffffffffffffffffffffffffff82169050919050565b60006200011d82620000f0565b9050919050565b6000620001318262000110565b9050919050565b620001438162000124565b81146200014f57600080fd5b50565b600081519050620001638162000138565b92915050565b620001748162000110565b81146200018057600080fd5b50565b600081519050620001948162000169565b92915050565b600080600060608486031215620001b657620001b5620000b0565b5b6000620001c686828701620000d9565b9350506020620001d98682870162000152565b9250506040620001ec8682870162000183565b9150509250925092565b60805160a05160c051610bdd62000249600039600081816101e601526104ab0152600081816101c20152818161048501526104f701526000818161030f015281816104d1015261051d0152610bdd6000f3fe60806040526004361061007f5760003560e01c8063893d20e81161004e578063893d20e814610135578063b465938914610160578063b60d42881461018b578063ea63a044146101955761008e565b80631bf6132d146100985780633ccfd60b146100d557806362ace8f3146100df578063741bef1a1461010a5761008e565b3661008e5761008c6101c0565b005b6100966101c0565b005b3480156100a457600080fd5b506100bf60048036038101906100ba919061075b565b6102f5565b6040516100cc91906107a1565b60405180910390f35b6100dd61030d565b005b3480156100eb57600080fd5b506100f4610481565b60405161010191906107a1565b60405180910390f35b34801561011657600080fd5b5061011f6104a9565b60405161012c919061081b565b60405180910390f35b34801561014157600080fd5b5061014a6104cd565b6040516101579190610845565b60405180910390f35b34801561016c57600080fd5b506101756104f5565b60405161018291906107a1565b60405180910390f35b6101936101c0565b005b3480156101a157600080fd5b506101aa610519565b6040516101b7919061091e565b60405180910390f35b7f00000000000000000000000000000000000000000000000000000000000000006102147f00000000000000000000000000000000000000000000000000000000000000003461062c90919063ffffffff16565b101561024c576040517f313665e400000000000000000000000000000000000000000000000000000000815260040160405180910390fd5b34600160003373ffffffffffffffffffffffffffffffffffffffff1673ffffffffffffffffffffffffffffffffffffffff168152602001908152602001600020819055506000339080600181540180825580915050600190039060005260206000200160009091909190916101000a81548173ffffffffffffffffffffffffffffffffffffffff021916908373ffffffffffffffffffffffffffffffffffffffff160217905550565b60016020528060005260406000206000915090505481565b7f000000000000000000000000000000000000000000000000000000000000000073ffffffffffffffffffffffffffffffffffffffff163373ffffffffffffffffffffffffffffffffffffffff1614610392576040517fac64d7c500000000000000000000000000000000000000000000000000000000815260040160405180910390fd5b3373ffffffffffffffffffffffffffffffffffffffff166108fc479081150290604051600060405180830381858888f193505050501580156103d8573d6000803e3d6000fd5b5060005b60008054905081101561047e5760006001600080848154811061040257610401610940565b5b9060005260206000200160009054906101000a900473ffffffffffffffffffffffffffffffffffffffff1673ffffffffffffffffffffffffffffffffffffffff1673ffffffffffffffffffffffffffffffffffffffff1681526020019081526020016000208190555080806104769061099e565b9150506103dc565b50565b60007f0000000000000000000000000000000000000000000000000000000000000000905090565b7f000000000000000000000000000000000000000000000000000000000000000081565b60007f0000000000000000000000000000000000000000000000000000000000000000905090565b7f000000000000000000000000000000000000000000000000000000000000000081565b60607f000000000000000000000000000000000000000000000000000000000000000073ffffffffffffffffffffffffffffffffffffffff163373ffffffffffffffffffffffffffffffffffffffff16146105a0576040517fac64d7c500000000000000000000000000000000000000000000000000000000815260040160405180910390fd5b600080548060200260200160405190810160405280929190818152602001828054801561062257602002820191906000526020600020905b8160009054906101000a900473ffffffffffffffffffffffffffffffffffffffff1673ffffffffffffffffffffffffffffffffffffffff16815260200190600101908083116105d8575b5050505050905090565b6000806305f5e10061063d84610677565b6106479190610a15565b90506000670de0b6b3a764000082866106609190610a46565b61066a9190610a15565b9050809250505092915050565b6000808273ffffffffffffffffffffffffffffffffffffffff1663feaf968c6040518163ffffffff1660e01b815260040160a060405180830381865afa1580156106c5573d6000803e3d6000fd5b505050506040513d601f19601f820116820180604052508101906106e99190610b2c565b50505091505080915050919050565b600080fd5b600073ffffffffffffffffffffffffffffffffffffffff82169050919050565b6000610728826106fd565b9050919050565b6107388161071d565b811461074357600080fd5b50565b6000813590506107558161072f565b92915050565b600060208284031215610771576107706106f8565b5b600061077f84828501610746565b91505092915050565b6000819050919050565b61079b81610788565b82525050565b60006020820190506107b66000830184610792565b92915050565b6000819050919050565b60006107e16107dc6107d7846106fd565b6107bc565b6106fd565b9050919050565b60006107f3826107c6565b9050919050565b6000610805826107e8565b9050919050565b610815816107fa565b82525050565b6000602082019050610830600083018461080c565b92915050565b61083f8161071d565b82525050565b600060208201905061085a6000830184610836565b92915050565b600081519050919050565b600082825260208201905092915050565b6000819050602082019050919050565b6108958161071d565b82525050565b60006108a7838361088c565b60208301905092915050565b6000602082019050919050565b60006108cb82610860565b6108d5818561086b565b93506108e08361087c565b8060005b838110156109115781516108f8888261089b565b9750610903836108b3565b9250506001810190506108e4565b5085935050505092915050565b6000602082019050818103600083015261093881846108c0565b905092915050565b7f4e487b7100000000000000000000000000000000000000000000000000000000600052603260045260246000fd5b7f4e487b7100000000000000000000000000000000000000000000000000000000600052601160045260246000fd5b60006109a982610788565b91507fffffffffffffffffffffffffffffffffffffffffffffffffffffffffffffffff82036109db576109da61096f565b5b600182019050919050565b7f4e487b7100000000000000000000000000000000000000000000000000000000600052601260045260246000fd5b6000610a2082610788565b9150610a2b83610788565b925082610a3b57610a3a6109e6565b5b828204905092915050565b6000610a5182610788565b9150610a5c83610788565b9250828202610a6a81610788565b91508282048414831517610a8157610a8061096f565b5b5092915050565b600069ffffffffffffffffffff82169050919050565b610aa781610a88565b8114610ab257600080fd5b50565b600081519050610ac481610a9e565b92915050565b6000819050919050565b610add81610aca565b8114610ae857600080fd5b50565b600081519050610afa81610ad4565b92915050565b610b0981610788565b8114610b1457600080fd5b50565b600081519050610b2681610b00565b92915050565b600080600080600060a08688031215610b4857610b476106f8565b5b6000610b5688828901610ab5565b9550506020610b6788828901610aeb565b9450506040610b7888828901610b17565b9350506060610b8988828901610b17565b9250506080610b9a88828901610ab5565b915050929550929590935056fea2646970667358221220acd3bb205b1c9c9eb660c095f4d797c5a4bf516655aca819887968ae06239f7564736f6c63430008110033a2646970667358221220c4b5c5456af63b36c9425c5230494d55a3e0c5e3d8e5258bf17fc4aad5aad14364736f6c63430008110033",
  "devdoc": {
    "kind": "dev",
    "methods": {},
    "version": 1
  },
  "userdoc": {
    "kind": "user",
    "methods": {},
    "version": 1
  },
  "storageLayout": {
    "storage": [
      {
        "astId": 227,
        "contract": "contracts/GoFundMeFactory.sol:GoFundMeFactory",
        "label": "goFundMeArray",
        "offset": 0,
        "slot": "0",
        "type": "t_array(t_contract(GoFundMe)219)dyn_storage"
      }
    ],
    "types": {
      "t_array(t_contract(GoFundMe)219)dyn_storage": {
        "base": "t_contract(GoFundMe)219",
        "encoding": "dynamic_array",
        "label": "contract GoFundMe[]",
        "numberOfBytes": "32"
      },
      "t_contract(GoFundMe)219": {
        "encoding": "inplace",
        "label": "contract GoFundMe",
        "numberOfBytes": "20"
      }
    }
  }
}