{
  "address": "0xc12061A5B442862A9042BC986bc679F68C1395F0",
  "abi": [
    {
      "inputs": [
        {
          "internalType": "uint256",
          "name": "_min_usd",
          "type": "uint256"
        },
        {
          "internalType": "contract AggregatorV3Interface",
          "name": "priceFeedAddress",
          "type": "address"
        }
      ],
      "stateMutability": "nonpayable",
      "type": "constructor"
    },
    {
      "inputs": [],
      "name": "GoFundMe__NotEnoughETH",
      "type": "error"
    },
    {
      "inputs": [],
      "name": "GoFundMe__OnlyOwner",
      "type": "error"
    },
    {
      "stateMutability": "payable",
      "type": "fallback"
    },
    {
      "inputs": [],
      "name": "fund",
      "outputs": [],
      "stateMutability": "payable",
      "type": "function"
    },
    {
      "inputs": [],
      "name": "getFunders",
      "outputs": [
        {
          "internalType": "address[]",
          "name": "",
          "type": "address[]"
        }
      ],
      "stateMutability": "view",
      "type": "function"
    },
    {
      "inputs": [],
      "name": "getMinUsd",
      "outputs": [
        {
          "internalType": "uint256",
          "name": "",
          "type": "uint256"
        }
      ],
      "stateMutability": "view",
      "type": "function"
    },
    {
      "inputs": [],
      "name": "getOwner",
      "outputs": [
        {
          "internalType": "address",
          "name": "",
          "type": "address"
        }
      ],
      "stateMutability": "view",
      "type": "function"
    },
    {
      "inputs": [],
      "name": "i_min_usd",
      "outputs": [
        {
          "internalType": "uint256",
          "name": "",
          "type": "uint256"
        }
      ],
      "stateMutability": "view",
      "type": "function"
    },
    {
      "inputs": [],
      "name": "priceFeed",
      "outputs": [
        {
          "internalType": "contract AggregatorV3Interface",
          "name": "",
          "type": "address"
        }
      ],
      "stateMutability": "view",
      "type": "function"
    },
    {
      "inputs": [
        {
          "internalType": "address",
          "name": "",
          "type": "address"
        }
      ],
      "name": "s_addressToAmountFunded",
      "outputs": [
        {
          "internalType": "uint256",
          "name": "",
          "type": "uint256"
        }
      ],
      "stateMutability": "view",
      "type": "function"
    },
    {
      "inputs": [],
      "name": "withdraw",
      "outputs": [],
      "stateMutability": "payable",
      "type": "function"
    },
    {
      "stateMutability": "payable",
      "type": "receive"
    }
  ],
  "transactionHash": "0x57665354f03036e2a1c414e606f74f4200756c3d07cf737d06aa83918e962f76",
  "args": [
    10,
    "0xD4a33860578De61DBAbDc8BFdb98FD742fA7028e"
  ],
  "numDeployments": 1,
  "solcInputHash": "8cabebaa35e5893f31b658bf4a1d5021",
  "bytecode": "0x60e06040523480156200001157600080fd5b5060405162000ddf38038062000ddf833981810160405281019062000037919062000168565b3373ffffffffffffffffffffffffffffffffffffffff1660808173ffffffffffffffffffffffffffffffffffffffff16815250508160a081815250508073ffffffffffffffffffffffffffffffffffffffff1660c08173ffffffffffffffffffffffffffffffffffffffff16815250505050620001af565b600080fd5b6000819050919050565b620000c981620000b4565b8114620000d557600080fd5b50565b600081519050620000e981620000be565b92915050565b600073ffffffffffffffffffffffffffffffffffffffff82169050919050565b60006200011c82620000ef565b9050919050565b600062000130826200010f565b9050919050565b620001428162000123565b81146200014e57600080fd5b50565b600081519050620001628162000137565b92915050565b60008060408385031215620001825762000181620000af565b5b60006200019285828601620000d8565b9250506020620001a58582860162000151565b9150509250929050565b60805160a05160c051610bdd62000202600039600081816101e601526104ab0152600081816101c20152818161048501526104f701526000818161030f015281816104d1015261051d0152610bdd6000f3fe60806040526004361061007f5760003560e01c8063893d20e81161004e578063893d20e814610135578063b465938914610160578063b60d42881461018b578063ea63a044146101955761008e565b80631bf6132d146100985780633ccfd60b146100d557806362ace8f3146100df578063741bef1a1461010a5761008e565b3661008e5761008c6101c0565b005b6100966101c0565b005b3480156100a457600080fd5b506100bf60048036038101906100ba919061075b565b6102f5565b6040516100cc91906107a1565b60405180910390f35b6100dd61030d565b005b3480156100eb57600080fd5b506100f4610481565b60405161010191906107a1565b60405180910390f35b34801561011657600080fd5b5061011f6104a9565b60405161012c919061081b565b60405180910390f35b34801561014157600080fd5b5061014a6104cd565b6040516101579190610845565b60405180910390f35b34801561016c57600080fd5b506101756104f5565b60405161018291906107a1565b60405180910390f35b6101936101c0565b005b3480156101a157600080fd5b506101aa610519565b6040516101b7919061091e565b60405180910390f35b7f00000000000000000000000000000000000000000000000000000000000000006102147f00000000000000000000000000000000000000000000000000000000000000003461062c90919063ffffffff16565b101561024c576040517f313665e400000000000000000000000000000000000000000000000000000000815260040160405180910390fd5b34600160003373ffffffffffffffffffffffffffffffffffffffff1673ffffffffffffffffffffffffffffffffffffffff168152602001908152602001600020819055506000339080600181540180825580915050600190039060005260206000200160009091909190916101000a81548173ffffffffffffffffffffffffffffffffffffffff021916908373ffffffffffffffffffffffffffffffffffffffff160217905550565b60016020528060005260406000206000915090505481565b7f000000000000000000000000000000000000000000000000000000000000000073ffffffffffffffffffffffffffffffffffffffff163373ffffffffffffffffffffffffffffffffffffffff1614610392576040517fac64d7c500000000000000000000000000000000000000000000000000000000815260040160405180910390fd5b3373ffffffffffffffffffffffffffffffffffffffff166108fc479081150290604051600060405180830381858888f193505050501580156103d8573d6000803e3d6000fd5b5060005b60008054905081101561047e5760006001600080848154811061040257610401610940565b5b9060005260206000200160009054906101000a900473ffffffffffffffffffffffffffffffffffffffff1673ffffffffffffffffffffffffffffffffffffffff1673ffffffffffffffffffffffffffffffffffffffff1681526020019081526020016000208190555080806104769061099e565b9150506103dc565b50565b60007f0000000000000000000000000000000000000000000000000000000000000000905090565b7f000000000000000000000000000000000000000000000000000000000000000081565b60007f0000000000000000000000000000000000000000000000000000000000000000905090565b7f000000000000000000000000000000000000000000000000000000000000000081565b60607f000000000000000000000000000000000000000000000000000000000000000073ffffffffffffffffffffffffffffffffffffffff163373ffffffffffffffffffffffffffffffffffffffff16146105a0576040517fac64d7c500000000000000000000000000000000000000000000000000000000815260040160405180910390fd5b600080548060200260200160405190810160405280929190818152602001828054801561062257602002820191906000526020600020905b8160009054906101000a900473ffffffffffffffffffffffffffffffffffffffff1673ffffffffffffffffffffffffffffffffffffffff16815260200190600101908083116105d8575b5050505050905090565b6000806305f5e10061063d84610677565b6106479190610a15565b90506000670de0b6b3a764000082866106609190610a46565b61066a9190610a15565b9050809250505092915050565b6000808273ffffffffffffffffffffffffffffffffffffffff1663feaf968c6040518163ffffffff1660e01b815260040160a060405180830381865afa1580156106c5573d6000803e3d6000fd5b505050506040513d601f19601f820116820180604052508101906106e99190610b2c565b50505091505080915050919050565b600080fd5b600073ffffffffffffffffffffffffffffffffffffffff82169050919050565b6000610728826106fd565b9050919050565b6107388161071d565b811461074357600080fd5b50565b6000813590506107558161072f565b92915050565b600060208284031215610771576107706106f8565b5b600061077f84828501610746565b91505092915050565b6000819050919050565b61079b81610788565b82525050565b60006020820190506107b66000830184610792565b92915050565b6000819050919050565b60006107e16107dc6107d7846106fd565b6107bc565b6106fd565b9050919050565b60006107f3826107c6565b9050919050565b6000610805826107e8565b9050919050565b610815816107fa565b82525050565b6000602082019050610830600083018461080c565b92915050565b61083f8161071d565b82525050565b600060208201905061085a6000830184610836565b92915050565b600081519050919050565b600082825260208201905092915050565b6000819050602082019050919050565b6108958161071d565b82525050565b60006108a7838361088c565b60208301905092915050565b6000602082019050919050565b60006108cb82610860565b6108d5818561086b565b93506108e08361087c565b8060005b838110156109115781516108f8888261089b565b9750610903836108b3565b9250506001810190506108e4565b5085935050505092915050565b6000602082019050818103600083015261093881846108c0565b905092915050565b7f4e487b7100000000000000000000000000000000000000000000000000000000600052603260045260246000fd5b7f4e487b7100000000000000000000000000000000000000000000000000000000600052601160045260246000fd5b60006109a982610788565b91507fffffffffffffffffffffffffffffffffffffffffffffffffffffffffffffffff82036109db576109da61096f565b5b600182019050919050565b7f4e487b7100000000000000000000000000000000000000000000000000000000600052601260045260246000fd5b6000610a2082610788565b9150610a2b83610788565b925082610a3b57610a3a6109e6565b5b828204905092915050565b6000610a5182610788565b9150610a5c83610788565b9250828202610a6a81610788565b91508282048414831517610a8157610a8061096f565b5b5092915050565b600069ffffffffffffffffffff82169050919050565b610aa781610a88565b8114610ab257600080fd5b50565b600081519050610ac481610a9e565b92915050565b6000819050919050565b610add81610aca565b8114610ae857600080fd5b50565b600081519050610afa81610ad4565b92915050565b610b0981610788565b8114610b1457600080fd5b50565b600081519050610b2681610b00565b92915050565b600080600080600060a08688031215610b4857610b476106f8565b5b6000610b5688828901610ab5565b9550506020610b6788828901610aeb565b9450506040610b7888828901610b17565b9350506060610b8988828901610b17565b9250506080610b9a88828901610ab5565b915050929550929590935056fea2646970667358221220762cad9348fe0204614f790b4e4d3cda16ce579a5521670d7e9e04df6f056fd964736f6c63430008110033",
  "devdoc": {
    "kind": "dev",
    "methods": {},
    "version": 1
  },
  "userdoc": {
    "kind": "user",
    "methods": {},
    "version": 1
  },
  "storageLayout": {
    "storage": [
      {
        "astId": 61,
        "contract": "contracts/GoFundMe.sol:GoFundMe",
        "label": "s_funders",
        "offset": 0,
        "slot": "0",
        "type": "t_array(t_address)dyn_storage"
      },
      {
        "astId": 65,
        "contract": "contracts/GoFundMe.sol:GoFundMe",
        "label": "s_addressToAmountFunded",
        "offset": 0,
        "slot": "1",
        "type": "t_mapping(t_address,t_uint256)"
      }
    ],
    "types": {
      "t_address": {
        "encoding": "inplace",
        "label": "address",
        "numberOfBytes": "20"
      },
      "t_array(t_address)dyn_storage": {
        "base": "t_address",
        "encoding": "dynamic_array",
        "label": "address[]",
        "numberOfBytes": "32"
      },
      "t_mapping(t_address,t_uint256)": {
        "encoding": "mapping",
        "key": "t_address",
        "label": "mapping(address => uint256)",
        "numberOfBytes": "32",
        "value": "t_uint256"
      },
      "t_uint256": {
        "encoding": "inplace",
        "label": "uint256",
        "numberOfBytes": "32"
      }
    }
  }
}