{
  "address": "0x7Ae1eda6C00fA91AcaC23A0B1b7091b92d221b11",
  "abi": [
    {
      "inputs": [
        {
          "internalType": "uint256",
          "name": "_min_usd",
          "type": "uint256"
        },
        {
          "internalType": "contract AggregatorV3Interface",
          "name": "priceFeedAddress",
          "type": "address"
        }
      ],
      "stateMutability": "nonpayable",
      "type": "constructor"
    },
    {
      "inputs": [],
      "name": "GoFundMe__NotEnoughETH",
      "type": "error"
    },
    {
      "inputs": [],
      "name": "GoFundMe__OnlyOwner",
      "type": "error"
    },
    {
      "inputs": [],
      "name": "fund",
      "outputs": [],
      "stateMutability": "payable",
      "type": "function"
    },
    {
      "inputs": [],
      "name": "getOwner",
      "outputs": [
        {
          "internalType": "address",
          "name": "",
          "type": "address"
        }
      ],
      "stateMutability": "view",
      "type": "function"
    },
    {
      "inputs": [],
      "name": "i_min_usd",
      "outputs": [
        {
          "internalType": "uint256",
          "name": "",
          "type": "uint256"
        }
      ],
      "stateMutability": "view",
      "type": "function"
    },
    {
      "inputs": [],
      "name": "i_owner",
      "outputs": [
        {
          "internalType": "address",
          "name": "",
          "type": "address"
        }
      ],
      "stateMutability": "view",
      "type": "function"
    },
    {
      "inputs": [],
      "name": "priceFeed",
      "outputs": [
        {
          "internalType": "contract AggregatorV3Interface",
          "name": "",
          "type": "address"
        }
      ],
      "stateMutability": "view",
      "type": "function"
    },
    {
      "inputs": [
        {
          "internalType": "address",
          "name": "",
          "type": "address"
        }
      ],
      "name": "s_addressToAmountFunded",
      "outputs": [
        {
          "internalType": "uint256",
          "name": "",
          "type": "uint256"
        }
      ],
      "stateMutability": "view",
      "type": "function"
    },
    {
      "inputs": [],
      "name": "withdraw",
      "outputs": [],
      "stateMutability": "payable",
      "type": "function"
    }
  ],
  "transactionHash": "0x33c189c4bd40be614d7e9c547c560787df1427c023285fa9e24e4f0bf7751be4",
  "args": [
    50,
    "0xD4a33860578De61DBAbDc8BFdb98FD742fA7028e"
  ],
  "numDeployments": 1,
  "solcInputHash": "481cbf537a8af56dfa39b29fa1001208",
  "bytecode": "0x60e060405234801561001057600080fd5b50604051610b77380380610b7783398181016040528101906100329190610154565b3373ffffffffffffffffffffffffffffffffffffffff1660808173ffffffffffffffffffffffffffffffffffffffff16815250508160a081815250508073ffffffffffffffffffffffffffffffffffffffff1660c08173ffffffffffffffffffffffffffffffffffffffff16815250505050610194565b600080fd5b6000819050919050565b6100c1816100ae565b81146100cc57600080fd5b50565b6000815190506100de816100b8565b92915050565b600073ffffffffffffffffffffffffffffffffffffffff82169050919050565b600061010f826100e4565b9050919050565b600061012182610104565b9050919050565b61013181610116565b811461013c57600080fd5b50565b60008151905061014e81610128565b92915050565b6000806040838503121561016b5761016a6100a9565b5b6000610179858286016100cf565b925050602061018a8582860161013f565b9150509250929050565b60805160a05160c0516109986101df60003960008181610300015261039401526000818161034c015261037001526000818161018c0152818161032601526104a501526109986000f3fe6080604052600436106100705760003560e01c8063893d20e81161004e578063893d20e8146100e7578063b465938914610112578063b60d42881461013d578063dba6335f1461014757610070565b80631bf6132d146100755780633ccfd60b146100b2578063741bef1a146100bc575b600080fd5b34801561008157600080fd5b5061009c600480360381019061009791906105f6565b610172565b6040516100a9919061063c565b60405180910390f35b6100ba61018a565b005b3480156100c857600080fd5b506100d16102fe565b6040516100de91906106b6565b60405180910390f35b3480156100f357600080fd5b506100fc610322565b60405161010991906106e0565b60405180910390f35b34801561011e57600080fd5b5061012761034a565b604051610134919061063c565b60405180910390f35b61014561036e565b005b34801561015357600080fd5b5061015c6104a3565b60405161016991906106e0565b60405180910390f35b60016020528060005260406000206000915090505481565b7f000000000000000000000000000000000000000000000000000000000000000073ffffffffffffffffffffffffffffffffffffffff163373ffffffffffffffffffffffffffffffffffffffff161461020f576040517fac64d7c500000000000000000000000000000000000000000000000000000000815260040160405180910390fd5b3373ffffffffffffffffffffffffffffffffffffffff166108fc479081150290604051600060405180830381858888f19350505050158015610255573d6000803e3d6000fd5b5060005b6000805490508110156102fb5760006001600080848154811061027f5761027e6106fb565b5b9060005260206000200160009054906101000a900473ffffffffffffffffffffffffffffffffffffffff1673ffffffffffffffffffffffffffffffffffffffff1673ffffffffffffffffffffffffffffffffffffffff1681526020019081526020016000208190555080806102f390610759565b915050610259565b50565b7f000000000000000000000000000000000000000000000000000000000000000081565b60007f0000000000000000000000000000000000000000000000000000000000000000905090565b7f000000000000000000000000000000000000000000000000000000000000000081565b7f00000000000000000000000000000000000000000000000000000000000000006103c27f0000000000000000000000000000000000000000000000000000000000000000346104c790919063ffffffff16565b10156103fa576040517f313665e400000000000000000000000000000000000000000000000000000000815260040160405180910390fd5b34600160003373ffffffffffffffffffffffffffffffffffffffff1673ffffffffffffffffffffffffffffffffffffffff168152602001908152602001600020819055506000339080600181540180825580915050600190039060005260206000200160009091909190916101000a81548173ffffffffffffffffffffffffffffffffffffffff021916908373ffffffffffffffffffffffffffffffffffffffff160217905550565b7f000000000000000000000000000000000000000000000000000000000000000081565b6000806305f5e1006104d884610512565b6104e291906107d0565b90506000670de0b6b3a764000082866104fb9190610801565b61050591906107d0565b9050809250505092915050565b6000808273ffffffffffffffffffffffffffffffffffffffff1663feaf968c6040518163ffffffff1660e01b815260040160a060405180830381865afa158015610560573d6000803e3d6000fd5b505050506040513d601f19601f8201168201806040525081019061058491906108e7565b50505091505080915050919050565b600080fd5b600073ffffffffffffffffffffffffffffffffffffffff82169050919050565b60006105c382610598565b9050919050565b6105d3816105b8565b81146105de57600080fd5b50565b6000813590506105f0816105ca565b92915050565b60006020828403121561060c5761060b610593565b5b600061061a848285016105e1565b91505092915050565b6000819050919050565b61063681610623565b82525050565b6000602082019050610651600083018461062d565b92915050565b6000819050919050565b600061067c61067761067284610598565b610657565b610598565b9050919050565b600061068e82610661565b9050919050565b60006106a082610683565b9050919050565b6106b081610695565b82525050565b60006020820190506106cb60008301846106a7565b92915050565b6106da816105b8565b82525050565b60006020820190506106f560008301846106d1565b92915050565b7f4e487b7100000000000000000000000000000000000000000000000000000000600052603260045260246000fd5b7f4e487b7100000000000000000000000000000000000000000000000000000000600052601160045260246000fd5b600061076482610623565b91507fffffffffffffffffffffffffffffffffffffffffffffffffffffffffffffffff82036107965761079561072a565b5b600182019050919050565b7f4e487b7100000000000000000000000000000000000000000000000000000000600052601260045260246000fd5b60006107db82610623565b91506107e683610623565b9250826107f6576107f56107a1565b5b828204905092915050565b600061080c82610623565b915061081783610623565b925082820261082581610623565b9150828204841483151761083c5761083b61072a565b5b5092915050565b600069ffffffffffffffffffff82169050919050565b61086281610843565b811461086d57600080fd5b50565b60008151905061087f81610859565b92915050565b6000819050919050565b61089881610885565b81146108a357600080fd5b50565b6000815190506108b58161088f565b92915050565b6108c481610623565b81146108cf57600080fd5b50565b6000815190506108e1816108bb565b92915050565b600080600080600060a0868803121561090357610902610593565b5b600061091188828901610870565b9550506020610922888289016108a6565b9450506040610933888289016108d2565b9350506060610944888289016108d2565b925050608061095588828901610870565b915050929550929590935056fea2646970667358221220d59a4ba3128600211c6aeb5ed208611d65b56be1299030628648a183882cbc7d64736f6c63430008110033",
  "devdoc": {
    "kind": "dev",
    "methods": {},
    "version": 1
  },
  "userdoc": {
    "kind": "user",
    "methods": {},
    "version": 1
  },
  "storageLayout": {
    "storage": [
      {
        "astId": 61,
        "contract": "contracts/GoFundMe.sol:GoFundMe",
        "label": "s_funders",
        "offset": 0,
        "slot": "0",
        "type": "t_array(t_address)dyn_storage"
      },
      {
        "astId": 65,
        "contract": "contracts/GoFundMe.sol:GoFundMe",
        "label": "s_addressToAmountFunded",
        "offset": 0,
        "slot": "1",
        "type": "t_mapping(t_address,t_uint256)"
      }
    ],
    "types": {
      "t_address": {
        "encoding": "inplace",
        "label": "address",
        "numberOfBytes": "20"
      },
      "t_array(t_address)dyn_storage": {
        "base": "t_address",
        "encoding": "dynamic_array",
        "label": "address[]",
        "numberOfBytes": "32"
      },
      "t_mapping(t_address,t_uint256)": {
        "encoding": "mapping",
        "key": "t_address",
        "label": "mapping(address => uint256)",
        "numberOfBytes": "32",
        "value": "t_uint256"
      },
      "t_uint256": {
        "encoding": "inplace",
        "label": "uint256",
        "numberOfBytes": "32"
      }
    }
  }
}